{
  "contractName": "Booking",
  "abi": [
    {
      "anonymous": false,
      "inputs": [
        {
          "indexed": false,
          "internalType": "uint256",
          "name": "roomId",
          "type": "uint256"
        },
        {
          "indexed": false,
          "internalType": "address",
          "name": "name",
          "type": "address"
        }
      ],
      "name": "NewRoomBooking",
      "type": "event"
    },
    {
      "anonymous": false,
      "inputs": [
        {
          "indexed": false,
          "internalType": "uint256",
          "name": "hotelId",
          "type": "uint256"
        },
        {
          "indexed": false,
          "internalType": "string",
          "name": "name",
          "type": "string"
        },
        {
          "indexed": false,
          "internalType": "string",
          "name": "city",
          "type": "string"
        },
        {
          "indexed": false,
          "internalType": "uint256",
          "name": "noOfBeds",
          "type": "uint256"
        }
      ],
      "name": "addHotel",
      "type": "event"
    },
    {
      "inputs": [
        {
          "internalType": "uint256",
          "name": "",
          "type": "uint256"
        }
      ],
      "name": "bookedRooms",
      "outputs": [
        {
          "internalType": "uint256",
          "name": "roomId",
          "type": "uint256"
        },
        {
          "internalType": "uint256",
          "name": "hotelId",
          "type": "uint256"
        },
        {
          "internalType": "address",
          "name": "name",
          "type": "address"
        }
      ],
      "stateMutability": "view",
      "type": "function"
    },
    {
      "inputs": [
        {
          "internalType": "uint256",
          "name": "",
          "type": "uint256"
        }
      ],
      "name": "hotelsList",
      "outputs": [
        {
          "internalType": "string",
          "name": "name",
          "type": "string"
        },
        {
          "internalType": "string",
          "name": "city",
          "type": "string"
        },
        {
          "internalType": "uint256",
          "name": "roomPrice",
          "type": "uint256"
        },
        {
          "internalType": "uint256",
          "name": "roomAvailable",
          "type": "uint256"
        }
      ],
      "stateMutability": "view",
      "type": "function"
    },
    {
      "inputs": [
        {
          "internalType": "string",
          "name": "_name",
          "type": "string"
        },
        {
          "internalType": "string",
          "name": "_city",
          "type": "string"
        },
        {
          "internalType": "uint256",
          "name": "_noOfBeds",
          "type": "uint256"
        },
        {
          "internalType": "uint256",
          "name": "_roomPrice",
          "type": "uint256"
        }
      ],
      "name": "_addHotel",
      "outputs": [],
      "stateMutability": "nonpayable",
      "type": "function"
    },
    {
      "inputs": [
        {
          "internalType": "uint256",
          "name": "_hotelId",
          "type": "uint256"
        }
      ],
      "name": "_bookOneRoom",
      "outputs": [],
      "stateMutability": "nonpayable",
      "type": "function"
    }
  ],
  "bytecode": "0x608060405234801561001057600080fd5b50610a4b806100206000396000f3fe608060405234801561001057600080fd5b506004361061004c5760003560e01c806333a1dfad146100515780636362a712146101b75780636b0f8686146102d8578063e3e0b0ac14610354575b600080fd5b6101b56004803603608081101561006757600080fd5b810190808035906020019064010000000081111561008457600080fd5b82018360208201111561009657600080fd5b803590602001918460018302840111640100000000831117156100b857600080fd5b91908080601f016020809104026020016040519081016040528093929190818152602001838380828437600081840152601f19601f8201169050808301925050505050505091929192908035906020019064010000000081111561011b57600080fd5b82018360208201111561012d57600080fd5b8035906020019184600183028401116401000000008311171561014f57600080fd5b91908080601f016020809104026020016040519081016040528093929190818152602001838380828437600081840152601f19601f8201169050808301925050505050505091929192908035906020019092919080359060200190929190505050610382565b005b6101e3600480360360208110156101cd57600080fd5b8101908080359060200190929190505050610613565b604051808060200180602001858152602001848152602001838103835287818151815260200191508051906020019080838360005b83811015610233578082015181840152602081019050610218565b50505050905090810190601f1680156102605780820380516001836020036101000a031916815260200191505b50838103825286818151815260200191508051906020019080838360005b8381101561029957808201518184015260208101905061027e565b50505050905090810190601f1680156102c65780820380516001836020036101000a031916815260200191505b50965050505050505060405180910390f35b610304600480360360208110156102ee57600080fd5b8101908080359060200190929190505050610780565b604051808481526020018381526020018273ffffffffffffffffffffffffffffffffffffffff1673ffffffffffffffffffffffffffffffffffffffff168152602001935050505060405180910390f35b6103806004803603602081101561036a57600080fd5b81019080803590602001909291905050506107ca565b005b61038a610948565b60405180608001604052808681526020018581526020018381526020018481525090503360056000600254815260200190815260200160002060006101000a81548173ffffffffffffffffffffffffffffffffffffffff021916908373ffffffffffffffffffffffffffffffffffffffff1602179055508060008060025481526020019081526020016000206000820151816000019080519060200190610432929190610970565b50602082015181600101908051906020019061044f929190610970565b506040820151816002015560608201518160030155905050600481908060018154018082558091505060019003906000526020600020906004020160009091909190915060008201518160000190805190602001906104af929190610970565b5060208201518160010190805190602001906104cc929190610970565b50604082015181600201556060820151816003015550507f0639514c58c119f0696ebb97203df040a21005dad482d339eaafad2a5db195526002600081548092919060010191905055868686604051808581526020018060200180602001848152602001838103835286818151815260200191508051906020019080838360005b8381101561056857808201518184015260208101905061054d565b50505050905090810190601f1680156105955780820380516001836020036101000a031916815260200191505b50838103825285818151815260200191508051906020019080838360005b838110156105ce5780820151818401526020810190506105b3565b50505050905090810190601f1680156105fb5780820380516001836020036101000a031916815260200191505b50965050505050505060405180910390a15050505050565b6004818154811061062057fe5b9060005260206000209060040201600091509050806000018054600181600116156101000203166002900480601f0160208091040260200160405190810160405280929190818152602001828054600181600116156101000203166002900480156106cc5780601f106106a1576101008083540402835291602001916106cc565b820191906000526020600020905b8154815290600101906020018083116106af57829003601f168201915b505050505090806001018054600181600116156101000203166002900480601f01602080910402602001604051908101604052809291908181526020018280546001816001161561010002031660029004801561076a5780601f1061073f5761010080835404028352916020019161076a565b820191906000526020600020905b81548152906001019060200180831161074d57829003601f168201915b5050505050908060020154908060030154905084565b60016020528060005260406000206000915090508060000154908060010154908060020160009054906101000a900473ffffffffffffffffffffffffffffffffffffffff16905083565b60008060008381526020019081526020016000209050600081600301541161085a576040517f08c379a00000000000000000000000000000000000000000000000000000000081526004018080602001828103825260128152602001807f726f6f6d206e6f7420617661696c61626c65000000000000000000000000000081525060200191505060405180910390fd5b8060030160008154809291906001900391905055506004828154811061087c57fe5b90600052602060002090600402016003016000815480929190600190039190505550604051806060016040528060035481526020018381526020013373ffffffffffffffffffffffffffffffffffffffff16815250600160006003548152602001908152602001600020600082015181600001556020820151816001015560408201518160020160006101000a81548173ffffffffffffffffffffffffffffffffffffffff021916908373ffffffffffffffffffffffffffffffffffffffff1602179055509050505050565b6040518060800160405280606081526020016060815260200160008152602001600081525090565b828054600181600116156101000203166002900490600052602060002090601f016020900481019282601f106109b157805160ff19168380011785556109df565b828001600101855582156109df579182015b828111156109de5782518255916020019190600101906109c3565b5b5090506109ec91906109f0565b5090565b610a1291905b80821115610a0e5760008160009055506001016109f6565b5090565b9056fea264697066735822122000cf00cb13bc0573cfc5f35cc0abfc00ed0f4a0396613f3129aa60108cc8b9ef64736f6c63430006060033",
  "immutableReferences": {},
  "source": "// SPDX-License-Identifier: MIT\npragma solidity >=0.6.0 <0.8.0;\n\ncontract Booking {\n    event addHotel(\n        uint256 hotelId,\n        string name,\n        string city,\n        uint256 noOfBeds\n    );\n    event NewRoomBooking(uint256 roomId, address name);\n\n    struct Hotel {\n        string name;\n        string city;\n        uint256 roomPrice;\n        uint roomAvailable;\n    }\n    struct Room {\n        uint256 roomId; uint256 hotelId; address name;\n    }\n\n    mapping(uint256 => Hotel) hotels;\n    mapping(uint256 => Room) public bookedRooms;\n\n    uint256 hotelId;\n    uint256 roomId;\n\n    Hotel[] public hotelsList;\n    mapping(uint => address) hotelToOwner;\n\n\n    function _addHotel(\n        string memory _name,\n        string memory _city,\n        uint256 _noOfBeds,\n        uint _roomPrice\n    ) public {\n        Hotel memory hotel = Hotel(_name, _city , _roomPrice, _noOfBeds);\n        hotelToOwner[hotelId] = msg.sender;\n        hotels[hotelId] = hotel;\n        hotelsList.push(hotel);\n        emit addHotel(hotelId++, _name, _city,_noOfBeds);\n    }\n    \n    function _bookOneRoom(uint _hotelId) public {\n        Hotel storage hotel = hotels[_hotelId];\n        require(hotel.roomAvailable > 0, \"room not available\");\n        hotel.roomAvailable--;\n        hotelsList[_hotelId].roomAvailable--;\n        bookedRooms[roomId] = Room(roomId, _hotelId, msg.sender);\n    }\n\n}",
  "sourcePath": "/Users/SK-Dev/SK/Github/NFTrips/contracts/Booking.sol",
  "compiler": {
    "name": "solc",
    "version": "0.6.6+commit.6c089d02.Emscripten.clang"
  },
  "schemaVersion": "3.3.4",
  "updatedAt": "2021-03-30T18:11:23.698Z",
  "devdoc": {
    "methods": {}
  },
  "userdoc": {
    "methods": {}
  }
}