{
  "contractName": "Booking",
  "abi": [
    {
      "inputs": [],
      "stateMutability": "nonpayable",
      "type": "constructor"
    },
    {
      "anonymous": false,
      "inputs": [
        {
          "indexed": false,
          "internalType": "uint256",
          "name": "roomId",
          "type": "uint256"
        },
        {
          "indexed": false,
          "internalType": "address",
          "name": "name",
          "type": "address"
        }
      ],
      "name": "NewRoomBooking",
      "type": "event"
    },
    {
      "anonymous": false,
      "inputs": [
        {
          "indexed": false,
          "internalType": "uint256",
          "name": "hotelId",
          "type": "uint256"
        },
        {
          "indexed": false,
          "internalType": "string",
          "name": "name",
          "type": "string"
        },
        {
          "indexed": false,
          "internalType": "string",
          "name": "city",
          "type": "string"
        },
        {
          "indexed": false,
          "internalType": "uint256",
          "name": "noOfBeds",
          "type": "uint256"
        }
      ],
      "name": "addHotel",
      "type": "event"
    },
    {
      "inputs": [
        {
          "internalType": "uint256",
          "name": "",
          "type": "uint256"
        }
      ],
      "name": "bookedRooms",
      "outputs": [
        {
          "internalType": "uint256",
          "name": "roomId",
          "type": "uint256"
        },
        {
          "internalType": "uint256",
          "name": "hotelId",
          "type": "uint256"
        },
        {
          "internalType": "address",
          "name": "name",
          "type": "address"
        }
      ],
      "stateMutability": "view",
      "type": "function"
    },
    {
      "inputs": [
        {
          "internalType": "uint256",
          "name": "",
          "type": "uint256"
        }
      ],
      "name": "hotelsList",
      "outputs": [
        {
          "internalType": "string",
          "name": "name",
          "type": "string"
        },
        {
          "internalType": "string",
          "name": "city",
          "type": "string"
        },
        {
          "internalType": "uint256",
          "name": "roomPrice",
          "type": "uint256"
        },
        {
          "internalType": "uint256",
          "name": "roomAvailable",
          "type": "uint256"
        }
      ],
      "stateMutability": "view",
      "type": "function"
    },
    {
      "inputs": [],
      "name": "getThePrice",
      "outputs": [
        {
          "internalType": "int256",
          "name": "",
          "type": "int256"
        }
      ],
      "stateMutability": "view",
      "type": "function"
    },
    {
      "inputs": [
        {
          "internalType": "string",
          "name": "_name",
          "type": "string"
        },
        {
          "internalType": "string",
          "name": "_city",
          "type": "string"
        },
        {
          "internalType": "uint256",
          "name": "_noOfBeds",
          "type": "uint256"
        },
        {
          "internalType": "uint256",
          "name": "_roomPrice",
          "type": "uint256"
        }
      ],
      "name": "_addHotel",
      "outputs": [],
      "stateMutability": "nonpayable",
      "type": "function"
    },
    {
      "inputs": [
        {
          "internalType": "uint256",
          "name": "_hotelId",
          "type": "uint256"
        }
      ],
      "name": "_bookOneRoom",
      "outputs": [],
      "stateMutability": "nonpayable",
      "type": "function"
    }
  ],
  "bytecode": "0x608060405234801561001057600080fd5b50738a753747a1fa494ec906ce90e9f37563a8af630e6000806101000a81548173ffffffffffffffffffffffffffffffffffffffff021916908373ffffffffffffffffffffffffffffffffffffffff160217905550610b5e806100746000396000f3fe608060405234801561001057600080fd5b50600436106100575760003560e01c806333a1dfad1461005c5780636362a712146101c25780636b0f8686146102e35780638c3c9a551461035f578063e3e0b0ac1461037d575b600080fd5b6101c06004803603608081101561007257600080fd5b810190808035906020019064010000000081111561008f57600080fd5b8201836020820111156100a157600080fd5b803590602001918460018302840111640100000000831117156100c357600080fd5b91908080601f016020809104026020016040519081016040528093929190818152602001838380828437600081840152601f19601f8201169050808301925050505050505091929192908035906020019064010000000081111561012657600080fd5b82018360208201111561013857600080fd5b8035906020019184600183028401116401000000008311171561015a57600080fd5b91908080601f016020809104026020016040519081016040528093929190818152602001838380828437600081840152601f19601f82011690508083019250505050505050919291929080359060200190929190803590602001909291905050506103ab565b005b6101ee600480360360208110156101d857600080fd5b810190808035906020019092919050505061063d565b604051808060200180602001858152602001848152602001838103835287818151815260200191508051906020019080838360005b8381101561023e578082015181840152602081019050610223565b50505050905090810190601f16801561026b5780820380516001836020036101000a031916815260200191505b50838103825286818151815260200191508051906020019080838360005b838110156102a4578082015181840152602081019050610289565b50505050905090810190601f1680156102d15780820380516001836020036101000a031916815260200191505b50965050505050505060405180910390f35b61030f600480360360208110156102f957600080fd5b81019080803590602001909291905050506107aa565b604051808481526020018381526020018273ffffffffffffffffffffffffffffffffffffffff1673ffffffffffffffffffffffffffffffffffffffff168152602001935050505060405180910390f35b6103676107f4565b6040518082815260200191505060405180910390f35b6103a96004803603602081101561039357600080fd5b81019080803590602001909291905050506108dc565b005b6103b3610a5b565b60405180608001604052808681526020018581526020018381526020018481525090503360066000600354815260200190815260200160002060006101000a81548173ffffffffffffffffffffffffffffffffffffffff021916908373ffffffffffffffffffffffffffffffffffffffff16021790555080600160006003548152602001908152602001600020600082015181600001908051906020019061045c929190610a83565b506020820151816001019080519060200190610479929190610a83565b506040820151816002015560608201518160030155905050600581908060018154018082558091505060019003906000526020600020906004020160009091909190915060008201518160000190805190602001906104d9929190610a83565b5060208201518160010190805190602001906104f6929190610a83565b50604082015181600201556060820151816003015550507f0639514c58c119f0696ebb97203df040a21005dad482d339eaafad2a5db195526003600081548092919060010191905055868686604051808581526020018060200180602001848152602001838103835286818151815260200191508051906020019080838360005b83811015610592578082015181840152602081019050610577565b50505050905090810190601f1680156105bf5780820380516001836020036101000a031916815260200191505b50838103825285818151815260200191508051906020019080838360005b838110156105f85780820151818401526020810190506105dd565b50505050905090810190601f1680156106255780820380516001836020036101000a031916815260200191505b50965050505050505060405180910390a15050505050565b6005818154811061064a57fe5b9060005260206000209060040201600091509050806000018054600181600116156101000203166002900480601f0160208091040260200160405190810160405280929190818152602001828054600181600116156101000203166002900480156106f65780601f106106cb576101008083540402835291602001916106f6565b820191906000526020600020905b8154815290600101906020018083116106d957829003601f168201915b505050505090806001018054600181600116156101000203166002900480601f0160208091040260200160405190810160405280929190818152602001828054600181600116156101000203166002900480156107945780601f1061076957610100808354040283529160200191610794565b820191906000526020600020905b81548152906001019060200180831161077757829003601f168201915b5050505050908060020154908060030154905084565b60026020528060005260406000206000915090508060000154908060010154908060020160009054906101000a900473ffffffffffffffffffffffffffffffffffffffff16905083565b6000806000806000806000809054906101000a900473ffffffffffffffffffffffffffffffffffffffff1673ffffffffffffffffffffffffffffffffffffffff1663feaf968c6040518163ffffffff1660e01b815260040160a06040518083038186803b15801561086457600080fd5b505afa158015610878573d6000803e3d6000fd5b505050506040513d60a081101561088e57600080fd5b81019080805190602001909291908051906020019092919080519060200190929190805190602001909291908051906020019092919050505094509450945094509450839550505050505090565b6000600160008381526020019081526020016000209050600081600301541161096d576040517f08c379a00000000000000000000000000000000000000000000000000000000081526004018080602001828103825260128152602001807f726f6f6d206e6f7420617661696c61626c65000000000000000000000000000081525060200191505060405180910390fd5b8060030160008154809291906001900391905055506005828154811061098f57fe5b90600052602060002090600402016003016000815480929190600190039190505550604051806060016040528060045481526020018381526020013373ffffffffffffffffffffffffffffffffffffffff16815250600260006004548152602001908152602001600020600082015181600001556020820151816001015560408201518160020160006101000a81548173ffffffffffffffffffffffffffffffffffffffff021916908373ffffffffffffffffffffffffffffffffffffffff1602179055509050505050565b6040518060800160405280606081526020016060815260200160008152602001600081525090565b828054600181600116156101000203166002900490600052602060002090601f016020900481019282601f10610ac457805160ff1916838001178555610af2565b82800160010185558215610af2579182015b82811115610af1578251825591602001919060010190610ad6565b5b509050610aff9190610b03565b5090565b610b2591905b80821115610b21576000816000905550600101610b09565b5090565b9056fea264697066735822122032c9430280d2d37ce647cd0c055c4e277ad1c0dffbafb0bd7051f57d86c366bc64736f6c63430006060033",
  "immutableReferences": {},
  "source": "// SPDX-License-Identifier: MIT\npragma solidity ^0.6.6;\nimport \"@chainlink/contracts/src/v0.6/interfaces/AggregatorV3Interface.sol\";\n\ncontract Booking {\n    AggregatorV3Interface internal priceFeed;\n\n    constructor() public {\n        priceFeed = AggregatorV3Interface(0x8A753747A1Fa494EC906cE90E9f37563A8AF630e);\n    }\n    event addHotel(\n        uint256 hotelId,\n        string name,\n        string city,\n        uint256 noOfBeds\n    );\n    event NewRoomBooking(uint256 roomId, address name);\n\n    struct Hotel {\n        string name;\n        string city;\n        uint256 roomPrice;\n        uint roomAvailable;\n    }\n    struct Room {\n        uint256 roomId; uint256 hotelId; address name;\n    }\n\n    mapping(uint256 => Hotel) hotels;\n    mapping(uint256 => Room) public bookedRooms;\n\n    uint256 hotelId;\n    uint256 roomId;\n\n    Hotel[] public hotelsList;\n    mapping(uint => address) hotelToOwner;\n\n    function getThePrice() public view returns (int) {\n        (\n            uint80 roundID, \n            int price,\n            uint startedAt,\n            uint timeStamp,\n            uint80 answeredInRound\n        ) = priceFeed.latestRoundData();\n        return price;\n    }\n\n    function _addHotel(\n        string memory _name,\n        string memory _city,\n        uint256 _noOfBeds,\n        uint _roomPrice\n    ) public {\n        Hotel memory hotel = Hotel(_name, _city , _roomPrice, _noOfBeds);\n        hotelToOwner[hotelId] = msg.sender;\n        hotels[hotelId] = hotel;\n        hotelsList.push(hotel);\n        emit addHotel(hotelId++, _name, _city,_noOfBeds);\n    }\n    \n    function _bookOneRoom(uint _hotelId) public {\n        Hotel storage hotel = hotels[_hotelId];\n        require(hotel.roomAvailable > 0, \"room not available\");\n        hotel.roomAvailable--;\n        hotelsList[_hotelId].roomAvailable--;\n        bookedRooms[roomId] = Room(roomId, _hotelId, msg.sender);\n    }\n\n}",
  "sourcePath": "/Users/SK-Dev/SK/Github/NFTrips/contracts/Booking.sol",
  "compiler": {
    "name": "solc",
    "version": "0.6.6+commit.6c089d02.Emscripten.clang"
  },
  "schemaVersion": "3.3.4",
  "updatedAt": "2021-04-11T20:32:11.952Z",
  "devdoc": {
    "methods": {}
  },
  "userdoc": {
    "methods": {}
  }
}