{
  "contractName": "NFTrip",
  "abi": [
    {
      "inputs": [
        {
          "internalType": "address",
          "name": "_VRFCoordinator",
          "type": "address"
        },
        {
          "internalType": "address",
          "name": "_LinkToken",
          "type": "address"
        },
        {
          "internalType": "bytes32",
          "name": "_keyhash",
          "type": "bytes32"
        }
      ],
      "stateMutability": "nonpayable",
      "type": "constructor"
    },
    {
      "anonymous": false,
      "inputs": [
        {
          "indexed": true,
          "internalType": "address",
          "name": "owner",
          "type": "address"
        },
        {
          "indexed": true,
          "internalType": "address",
          "name": "approved",
          "type": "address"
        },
        {
          "indexed": true,
          "internalType": "uint256",
          "name": "tokenId",
          "type": "uint256"
        }
      ],
      "name": "Approval",
      "type": "event"
    },
    {
      "anonymous": false,
      "inputs": [
        {
          "indexed": true,
          "internalType": "address",
          "name": "owner",
          "type": "address"
        },
        {
          "indexed": true,
          "internalType": "address",
          "name": "operator",
          "type": "address"
        },
        {
          "indexed": false,
          "internalType": "bool",
          "name": "approved",
          "type": "bool"
        }
      ],
      "name": "ApprovalForAll",
      "type": "event"
    },
    {
      "anonymous": false,
      "inputs": [
        {
          "indexed": true,
          "internalType": "address",
          "name": "from",
          "type": "address"
        },
        {
          "indexed": true,
          "internalType": "address",
          "name": "to",
          "type": "address"
        },
        {
          "indexed": true,
          "internalType": "uint256",
          "name": "tokenId",
          "type": "uint256"
        }
      ],
      "name": "Transfer",
      "type": "event"
    },
    {
      "inputs": [],
      "name": "LinkToken",
      "outputs": [
        {
          "internalType": "address",
          "name": "",
          "type": "address"
        }
      ],
      "stateMutability": "view",
      "type": "function",
      "constant": true
    },
    {
      "inputs": [],
      "name": "VRFCoordinator",
      "outputs": [
        {
          "internalType": "address",
          "name": "",
          "type": "address"
        }
      ],
      "stateMutability": "view",
      "type": "function",
      "constant": true
    },
    {
      "inputs": [
        {
          "internalType": "address",
          "name": "to",
          "type": "address"
        },
        {
          "internalType": "uint256",
          "name": "tokenId",
          "type": "uint256"
        }
      ],
      "name": "approve",
      "outputs": [],
      "stateMutability": "nonpayable",
      "type": "function"
    },
    {
      "inputs": [
        {
          "internalType": "address",
          "name": "owner",
          "type": "address"
        }
      ],
      "name": "balanceOf",
      "outputs": [
        {
          "internalType": "uint256",
          "name": "",
          "type": "uint256"
        }
      ],
      "stateMutability": "view",
      "type": "function",
      "constant": true
    },
    {
      "inputs": [],
      "name": "baseURI",
      "outputs": [
        {
          "internalType": "string",
          "name": "",
          "type": "string"
        }
      ],
      "stateMutability": "view",
      "type": "function",
      "constant": true
    },
    {
      "inputs": [
        {
          "internalType": "uint256",
          "name": "tokenId",
          "type": "uint256"
        }
      ],
      "name": "getApproved",
      "outputs": [
        {
          "internalType": "address",
          "name": "",
          "type": "address"
        }
      ],
      "stateMutability": "view",
      "type": "function",
      "constant": true
    },
    {
      "inputs": [
        {
          "internalType": "address",
          "name": "owner",
          "type": "address"
        },
        {
          "internalType": "address",
          "name": "operator",
          "type": "address"
        }
      ],
      "name": "isApprovedForAll",
      "outputs": [
        {
          "internalType": "bool",
          "name": "",
          "type": "bool"
        }
      ],
      "stateMutability": "view",
      "type": "function",
      "constant": true
    },
    {
      "inputs": [],
      "name": "name",
      "outputs": [
        {
          "internalType": "string",
          "name": "",
          "type": "string"
        }
      ],
      "stateMutability": "view",
      "type": "function",
      "constant": true
    },
    {
      "inputs": [
        {
          "internalType": "uint256",
          "name": "tokenId",
          "type": "uint256"
        }
      ],
      "name": "ownerOf",
      "outputs": [
        {
          "internalType": "address",
          "name": "",
          "type": "address"
        }
      ],
      "stateMutability": "view",
      "type": "function",
      "constant": true
    },
    {
      "inputs": [
        {
          "internalType": "uint256",
          "name": "",
          "type": "uint256"
        }
      ],
      "name": "places",
      "outputs": [
        {
          "internalType": "uint256",
          "name": "adventure",
          "type": "uint256"
        },
        {
          "internalType": "uint256",
          "name": "attractions",
          "type": "uint256"
        },
        {
          "internalType": "uint256",
          "name": "services",
          "type": "uint256"
        },
        {
          "internalType": "uint256",
          "name": "experience",
          "type": "uint256"
        },
        {
          "internalType": "string",
          "name": "name",
          "type": "string"
        }
      ],
      "stateMutability": "view",
      "type": "function",
      "constant": true
    },
    {
      "inputs": [],
      "name": "randomResult",
      "outputs": [
        {
          "internalType": "uint256",
          "name": "",
          "type": "uint256"
        }
      ],
      "stateMutability": "view",
      "type": "function",
      "constant": true
    },
    {
      "inputs": [
        {
          "internalType": "bytes32",
          "name": "requestId",
          "type": "bytes32"
        },
        {
          "internalType": "uint256",
          "name": "randomness",
          "type": "uint256"
        }
      ],
      "name": "rawFulfillRandomness",
      "outputs": [],
      "stateMutability": "nonpayable",
      "type": "function"
    },
    {
      "inputs": [
        {
          "internalType": "address",
          "name": "from",
          "type": "address"
        },
        {
          "internalType": "address",
          "name": "to",
          "type": "address"
        },
        {
          "internalType": "uint256",
          "name": "tokenId",
          "type": "uint256"
        }
      ],
      "name": "safeTransferFrom",
      "outputs": [],
      "stateMutability": "nonpayable",
      "type": "function"
    },
    {
      "inputs": [
        {
          "internalType": "address",
          "name": "from",
          "type": "address"
        },
        {
          "internalType": "address",
          "name": "to",
          "type": "address"
        },
        {
          "internalType": "uint256",
          "name": "tokenId",
          "type": "uint256"
        },
        {
          "internalType": "bytes",
          "name": "_data",
          "type": "bytes"
        }
      ],
      "name": "safeTransferFrom",
      "outputs": [],
      "stateMutability": "nonpayable",
      "type": "function"
    },
    {
      "inputs": [
        {
          "internalType": "address",
          "name": "operator",
          "type": "address"
        },
        {
          "internalType": "bool",
          "name": "approved",
          "type": "bool"
        }
      ],
      "name": "setApprovalForAll",
      "outputs": [],
      "stateMutability": "nonpayable",
      "type": "function"
    },
    {
      "inputs": [
        {
          "internalType": "bytes4",
          "name": "interfaceId",
          "type": "bytes4"
        }
      ],
      "name": "supportsInterface",
      "outputs": [
        {
          "internalType": "bool",
          "name": "",
          "type": "bool"
        }
      ],
      "stateMutability": "view",
      "type": "function",
      "constant": true
    },
    {
      "inputs": [],
      "name": "symbol",
      "outputs": [
        {
          "internalType": "string",
          "name": "",
          "type": "string"
        }
      ],
      "stateMutability": "view",
      "type": "function",
      "constant": true
    },
    {
      "inputs": [
        {
          "internalType": "uint256",
          "name": "index",
          "type": "uint256"
        }
      ],
      "name": "tokenByIndex",
      "outputs": [
        {
          "internalType": "uint256",
          "name": "",
          "type": "uint256"
        }
      ],
      "stateMutability": "view",
      "type": "function",
      "constant": true
    },
    {
      "inputs": [
        {
          "internalType": "address",
          "name": "owner",
          "type": "address"
        },
        {
          "internalType": "uint256",
          "name": "index",
          "type": "uint256"
        }
      ],
      "name": "tokenOfOwnerByIndex",
      "outputs": [
        {
          "internalType": "uint256",
          "name": "",
          "type": "uint256"
        }
      ],
      "stateMutability": "view",
      "type": "function",
      "constant": true
    },
    {
      "inputs": [
        {
          "internalType": "uint256",
          "name": "tokenId",
          "type": "uint256"
        }
      ],
      "name": "tokenURI",
      "outputs": [
        {
          "internalType": "string",
          "name": "",
          "type": "string"
        }
      ],
      "stateMutability": "view",
      "type": "function",
      "constant": true
    },
    {
      "inputs": [],
      "name": "totalSupply",
      "outputs": [
        {
          "internalType": "uint256",
          "name": "",
          "type": "uint256"
        }
      ],
      "stateMutability": "view",
      "type": "function",
      "constant": true
    },
    {
      "inputs": [
        {
          "internalType": "address",
          "name": "from",
          "type": "address"
        },
        {
          "internalType": "address",
          "name": "to",
          "type": "address"
        },
        {
          "internalType": "uint256",
          "name": "tokenId",
          "type": "uint256"
        }
      ],
      "name": "transferFrom",
      "outputs": [],
      "stateMutability": "nonpayable",
      "type": "function"
    },
    {
      "inputs": [
        {
          "internalType": "uint256",
          "name": "userProvidedSeed",
          "type": "uint256"
        },
        {
          "internalType": "string",
          "name": "place",
          "type": "string"
        }
      ],
      "name": "requestNewRandomPlace",
      "outputs": [
        {
          "internalType": "bytes32",
          "name": "",
          "type": "bytes32"
        }
      ],
      "stateMutability": "nonpayable",
      "type": "function"
    },
    {
      "inputs": [],
      "name": "getNumberOfPlaces",
      "outputs": [
        {
          "internalType": "uint256",
          "name": "",
          "type": "uint256"
        }
      ],
      "stateMutability": "view",
      "type": "function",
      "constant": true
    },
    {
      "inputs": [
        {
          "internalType": "uint256",
          "name": "tokenId",
          "type": "uint256"
        }
      ],
      "name": "getPlaceStats",
      "outputs": [
        {
          "internalType": "uint256",
          "name": "",
          "type": "uint256"
        },
        {
          "internalType": "uint256",
          "name": "",
          "type": "uint256"
        },
        {
          "internalType": "uint256",
          "name": "",
          "type": "uint256"
        },
        {
          "internalType": "uint256",
          "name": "",
          "type": "uint256"
        }
      ],
      "stateMutability": "view",
      "type": "function",
      "constant": true
    }
  ],
  "bytecode": "0x60c06040523480156200001157600080fd5b5060405162003c3c38038062003c3c833981810160405260608110156200003757600080fd5b8101908080519060200190929190805190602001909291908051906020019092919050505082826040518060400160405280600681526020017f4d795472697000000000000000000000000000000000000000000000000000008152506040518060400160405280600381526020017f4d59540000000000000000000000000000000000000000000000000000000000815250620000e26301ffc9a760e01b6200026f60201b60201c565b8160069080519060200190620000fa92919062000378565b5080600790805190602001906200011392919062000378565b506200012c6380ac58cd60e01b6200026f60201b60201c565b62000144635b5e139f60e01b6200026f60201b60201c565b6200015c63780e9d6360e01b6200026f60201b60201c565b50508173ffffffffffffffffffffffffffffffffffffffff1660a08173ffffffffffffffffffffffffffffffffffffffff1660601b815250508073ffffffffffffffffffffffffffffffffffffffff1660808173ffffffffffffffffffffffffffffffffffffffff1660601b81525050505082600e60006101000a81548173ffffffffffffffffffffffffffffffffffffffff021916908373ffffffffffffffffffffffffffffffffffffffff16021790555081600f60006101000a81548173ffffffffffffffffffffffffffffffffffffffff021916908373ffffffffffffffffffffffffffffffffffffffff16021790555080600b8190555067016345785d8a0000600c8190555050505062000427565b63ffffffff60e01b817bffffffffffffffffffffffffffffffffffffffffffffffffffffffff191614156200030c576040517f08c379a000000000000000000000000000000000000000000000000000000000815260040180806020018281038252601c8152602001807f4552433136353a20696e76616c696420696e746572666163652069640000000081525060200191505060405180910390fd5b6001600080837bffffffffffffffffffffffffffffffffffffffffffffffffffffffff19167bffffffffffffffffffffffffffffffffffffffffffffffffffffffff1916815260200190815260200160002060006101000a81548160ff02191690831515021790555050565b828054600181600116156101000203166002900490600052602060002090601f016020900481019282601f10620003bb57805160ff1916838001178555620003ec565b82800160010185558215620003ec579182015b82811115620003eb578251825591602001919060010190620003ce565b5b509050620003fb9190620003ff565b5090565b6200042491905b808211156200042057600081600090555060010162000406565b5090565b90565b60805160601c60a05160601c6137e16200045b6000398061147152806121035250806110fd52806120c752506137e16000f3fe608060405234801561001057600080fd5b50600436106101735760003560e01c80634f6ccce7116100de57806394985ddd11610097578063b88d4fde11610071578063b88d4fde1461090e578063c87b56dd14610a13578063e557bb4e14610aba578063e985e9c514610b7d57610173565b806394985ddd1461080357806395d89b411461083b578063a22cb465146108be57610173565b80634f6ccce7146105555780634f8e2fdf1461059757806362d34326146105e15780636352211e146106ba5780636c0360eb1461072857806370a08231146107ab57610173565b8063213aac4411610130578063213aac441461035857806323b872dd146103af5780632f745c591461041d57806333b608631461047f57806342619f66146104c957806342842e0e146104e757610173565b806301ffc9a71461017857806306fdde03146101dd578063081812fc14610260578063095ea7b3146102ce578063134f66011461031c57806318160ddd1461033a575b600080fd5b6101c36004803603602081101561018e57600080fd5b8101908080357bffffffffffffffffffffffffffffffffffffffffffffffffffffffff19169060200190929190505050610bf9565b604051808215151515815260200191505060405180910390f35b6101e5610c60565b6040518080602001828103825283818151815260200191508051906020019080838360005b8381101561022557808201518184015260208101905061020a565b50505050905090810190601f1680156102525780820380516001836020036101000a031916815260200191505b509250505060405180910390f35b61028c6004803603602081101561027657600080fd5b8101908080359060200190929190505050610d02565b604051808273ffffffffffffffffffffffffffffffffffffffff1673ffffffffffffffffffffffffffffffffffffffff16815260200191505060405180910390f35b61031a600480360360408110156102e457600080fd5b81019080803573ffffffffffffffffffffffffffffffffffffffff16906020019092919080359060200190929190505050610d9d565b005b610324610ee1565b6040518082815260200191505060405180910390f35b610342610eee565b6040518082815260200191505060405180910390f35b6103846004803603602081101561036e57600080fd5b8101908080359060200190929190505050610eff565b6040518085815260200184815260200183815260200182815260200194505050505060405180910390f35b61041b600480360360608110156103c557600080fd5b81019080803573ffffffffffffffffffffffffffffffffffffffff169060200190929190803573ffffffffffffffffffffffffffffffffffffffff16906020019092919080359060200190929190505050610f90565b005b6104696004803603604081101561043357600080fd5b81019080803573ffffffffffffffffffffffffffffffffffffffff16906020019092919080359060200190929190505050611006565b6040518082815260200191505060405180910390f35b610487611061565b604051808273ffffffffffffffffffffffffffffffffffffffff1673ffffffffffffffffffffffffffffffffffffffff16815260200191505060405180910390f35b6104d1611087565b6040518082815260200191505060405180910390f35b610553600480360360608110156104fd57600080fd5b81019080803573ffffffffffffffffffffffffffffffffffffffff169060200190929190803573ffffffffffffffffffffffffffffffffffffffff1690602001909291908035906020019092919050505061108d565b005b6105816004803603602081101561056b57600080fd5b81019080803590602001909291905050506110ad565b6040518082815260200191505060405180910390f35b61059f6110d0565b604051808273ffffffffffffffffffffffffffffffffffffffff1673ffffffffffffffffffffffffffffffffffffffff16815260200191505060405180910390f35b6106a4600480360360408110156105f757600080fd5b81019080803590602001909291908035906020019064010000000081111561061e57600080fd5b82018360208201111561063057600080fd5b8035906020019184600183028401116401000000008311171561065257600080fd5b91908080601f016020809104026020016040519081016040528093929190818152602001838380828437600081840152601f19601f8201169050808301925050505050505091929192905050506110f6565b6040518082815260200191505060405180910390f35b6106e6600480360360208110156106d057600080fd5b81019080803590602001909291905050506112c1565b604051808273ffffffffffffffffffffffffffffffffffffffff1673ffffffffffffffffffffffffffffffffffffffff16815260200191505060405180910390f35b6107306112f8565b6040518080602001828103825283818151815260200191508051906020019080838360005b83811015610770578082015181840152602081019050610755565b50505050905090810190601f16801561079d5780820380516001836020036101000a031916815260200191505b509250505060405180910390f35b6107ed600480360360208110156107c157600080fd5b81019080803573ffffffffffffffffffffffffffffffffffffffff16906020019092919050505061139a565b6040518082815260200191505060405180910390f35b6108396004803603604081101561081957600080fd5b81019080803590602001909291908035906020019092919050505061146f565b005b61084361153e565b6040518080602001828103825283818151815260200191508051906020019080838360005b83811015610883578082015181840152602081019050610868565b50505050905090810190601f1680156108b05780820380516001836020036101000a031916815260200191505b509250505060405180910390f35b61090c600480360360408110156108d457600080fd5b81019080803573ffffffffffffffffffffffffffffffffffffffff1690602001909291908035151590602001909291905050506115e0565b005b610a116004803603608081101561092457600080fd5b81019080803573ffffffffffffffffffffffffffffffffffffffff169060200190929190803573ffffffffffffffffffffffffffffffffffffffff169060200190929190803590602001909291908035906020019064010000000081111561098b57600080fd5b82018360208201111561099d57600080fd5b803590602001918460018302840111640100000000831117156109bf57600080fd5b91908080601f016020809104026020016040519081016040528093929190818152602001838380828437600081840152601f19601f820116905080830192505050505050509192919290505050611798565b005b610a3f60048036036020811015610a2957600080fd5b8101908080359060200190929190505050611810565b6040518080602001828103825283818151815260200191508051906020019080838360005b83811015610a7f578082015181840152602081019050610a64565b50505050905090810190601f168015610aac5780820380516001836020036101000a031916815260200191505b509250505060405180910390f35b610ae660048036036020811015610ad057600080fd5b8101908080359060200190929190505050611ae1565b6040518086815260200185815260200184815260200183815260200180602001828103825283818151815260200191508051906020019080838360005b83811015610b3e578082015181840152602081019050610b23565b50505050905090810190601f168015610b6b5780820380516001836020036101000a031916815260200191505b50965050505050505060405180910390f35b610bdf60048036036040811015610b9357600080fd5b81019080803573ffffffffffffffffffffffffffffffffffffffff169060200190929190803573ffffffffffffffffffffffffffffffffffffffff169060200190929190505050611bbc565b604051808215151515815260200191505060405180910390f35b6000806000837bffffffffffffffffffffffffffffffffffffffffffffffffffffffff19167bffffffffffffffffffffffffffffffffffffffffffffffffffffffff1916815260200190815260200160002060009054906101000a900460ff169050919050565b606060068054600181600116156101000203166002900480601f016020809104026020016040519081016040528092919081815260200182805460018160011615610100020316600290048015610cf85780601f10610ccd57610100808354040283529160200191610cf8565b820191906000526020600020905b815481529060010190602001808311610cdb57829003601f168201915b5050505050905090565b6000610d0d82611c50565b610d62576040517f08c379a000000000000000000000000000000000000000000000000000000000815260040180806020018281038252602c8152602001806136d6602c913960400191505060405180910390fd5b6004600083815260200190815260200160002060009054906101000a900473ffffffffffffffffffffffffffffffffffffffff169050919050565b6000610da8826112c1565b90508073ffffffffffffffffffffffffffffffffffffffff168373ffffffffffffffffffffffffffffffffffffffff161415610e2f576040517f08c379a000000000000000000000000000000000000000000000000000000000815260040180806020018281038252602181526020018061375a6021913960400191505060405180910390fd5b8073ffffffffffffffffffffffffffffffffffffffff16610e4e611c6d565b73ffffffffffffffffffffffffffffffffffffffff161480610e7d5750610e7c81610e77611c6d565b611bbc565b5b610ed2576040517f08c379a00000000000000000000000000000000000000000000000000000000081526004018080602001828103825260388152602001806136296038913960400191505060405180910390fd5b610edc8383611c75565b505050565b6000601080549050905090565b6000610efa6002611d2e565b905090565b60008060008060108581548110610f1257fe5b90600052602060002090600502016000015460108681548110610f3157fe5b90600052602060002090600502016001015460108781548110610f5057fe5b90600052602060002090600502016002015460108881548110610f6f57fe5b90600052602060002090600502016003015493509350935093509193509193565b610fa1610f9b611c6d565b82611d43565b610ff6576040517f08c379a000000000000000000000000000000000000000000000000000000000815260040180806020018281038252603181526020018061377b6031913960400191505060405180910390fd5b611001838383611e37565b505050565b600061105982600160008673ffffffffffffffffffffffffffffffffffffffff1673ffffffffffffffffffffffffffffffffffffffff16815260200190815260200160002061207a90919063ffffffff16565b905092915050565b600e60009054906101000a900473ffffffffffffffffffffffffffffffffffffffff1681565b600d5481565b6110a883838360405180602001604052806000815250611798565b505050565b6000806110c483600261209490919063ffffffff16565b50905080915050919050565b600f60009054906101000a900473ffffffffffffffffffffffffffffffffffffffff1681565b6000600c547f000000000000000000000000000000000000000000000000000000000000000073ffffffffffffffffffffffffffffffffffffffff166370a08231306040518263ffffffff1660e01b8152600401808273ffffffffffffffffffffffffffffffffffffffff1673ffffffffffffffffffffffffffffffffffffffff16815260200191505060206040518083038186803b15801561119857600080fd5b505afa1580156111ac573d6000803e3d6000fd5b505050506040513d60208110156111c257600080fd5b8101908080519060200190929190505050101561122a576040517f08c379a000000000000000000000000000000000000000000000000000000000815260040180806020018281038252602b8152602001806135ac602b913960400191505060405180910390fd5b600061123b600b54600c54866120c3565b90508260116000838152602001908152602001600020908051906020019061126492919061348e565b50336012600083815260200190815260200160002060006101000a81548173ffffffffffffffffffffffffffffffffffffffff021916908373ffffffffffffffffffffffffffffffffffffffff1602179055508091505092915050565b60006112f18260405180606001604052806029815260200161368b6029913960026122d19092919063ffffffff16565b9050919050565b606060098054600181600116156101000203166002900480601f0160208091040260200160405190810160405280929190818152602001828054600181600116156101000203166002900480156113905780601f1061136557610100808354040283529160200191611390565b820191906000526020600020905b81548152906001019060200180831161137357829003601f168201915b5050505050905090565b60008073ffffffffffffffffffffffffffffffffffffffff168273ffffffffffffffffffffffffffffffffffffffff161415611421576040517f08c379a000000000000000000000000000000000000000000000000000000000815260040180806020018281038252602a815260200180613661602a913960400191505060405180910390fd5b611468600160008473ffffffffffffffffffffffffffffffffffffffff1673ffffffffffffffffffffffffffffffffffffffff1681526020019081526020016000206122f0565b9050919050565b7f000000000000000000000000000000000000000000000000000000000000000073ffffffffffffffffffffffffffffffffffffffff163373ffffffffffffffffffffffffffffffffffffffff1614611530576040517f08c379a000000000000000000000000000000000000000000000000000000000815260040180806020018281038252601f8152602001807f4f6e6c7920565246436f6f7264696e61746f722063616e2066756c66696c6c0081525060200191505060405180910390fd5b61153a8282612305565b5050565b606060078054600181600116156101000203166002900480601f0160208091040260200160405190810160405280929190818152602001828054600181600116156101000203166002900480156115d65780601f106115ab576101008083540402835291602001916115d6565b820191906000526020600020905b8154815290600101906020018083116115b957829003601f168201915b5050505050905090565b6115e8611c6d565b73ffffffffffffffffffffffffffffffffffffffff168273ffffffffffffffffffffffffffffffffffffffff161415611689576040517f08c379a00000000000000000000000000000000000000000000000000000000081526004018080602001828103825260198152602001807f4552433732313a20617070726f766520746f2063616c6c65720000000000000081525060200191505060405180910390fd5b8060056000611696611c6d565b73ffffffffffffffffffffffffffffffffffffffff1673ffffffffffffffffffffffffffffffffffffffff16815260200190815260200160002060008473ffffffffffffffffffffffffffffffffffffffff1673ffffffffffffffffffffffffffffffffffffffff16815260200190815260200160002060006101000a81548160ff0219169083151502179055508173ffffffffffffffffffffffffffffffffffffffff16611743611c6d565b73ffffffffffffffffffffffffffffffffffffffff167f17307eab39ab6107e8899845ad3d59bd9653f200f220920489ca2b5937696c3183604051808215151515815260200191505060405180910390a35050565b6117a96117a3611c6d565b83611d43565b6117fe576040517f08c379a000000000000000000000000000000000000000000000000000000000815260040180806020018281038252603181526020018061377b6031913960400191505060405180910390fd5b61180a848484846124fc565b50505050565b606061181b82611c50565b611870576040517f08c379a000000000000000000000000000000000000000000000000000000000815260040180806020018281038252602f81526020018061372b602f913960400191505060405180910390fd5b6060600860008481526020019081526020016000208054600181600116156101000203166002900480601f0160208091040260200160405190810160405280929190818152602001828054600181600116156101000203166002900480156119195780601f106118ee57610100808354040283529160200191611919565b820191906000526020600020905b8154815290600101906020018083116118fc57829003601f168201915b50505050509050606061192a6112f8565b9050600081511415611940578192505050611adc565b600082511115611a115780826040516020018083805190602001908083835b60208310611982578051825260208201915060208101905060208303925061195f565b6001836020036101000a03801982511681845116808217855250505050505090500182805190602001908083835b602083106119d357805182526020820191506020810190506020830392506119b0565b6001836020036101000a0380198251168184511680821785525050505050509050019250505060405160208183030381529060405292505050611adc565b80611a1b8561256e565b6040516020018083805190602001908083835b60208310611a515780518252602082019150602081019050602083039250611a2e565b6001836020036101000a03801982511681845116808217855250505050505090500182805190602001908083835b60208310611aa25780518252602082019150602081019050602083039250611a7f565b6001836020036101000a03801982511681845116808217855250505050505090500192505050604051602081830303815290604052925050505b919050565b60108181548110611aee57fe5b9060005260206000209060050201600091509050806000015490806001015490806002015490806003015490806004018054600181600116156101000203166002900480601f016020809104026020016040519081016040528092919081815260200182805460018160011615610100020316600290048015611bb25780601f10611b8757610100808354040283529160200191611bb2565b820191906000526020600020905b815481529060010190602001808311611b9557829003601f168201915b5050505050905085565b6000600560008473ffffffffffffffffffffffffffffffffffffffff1673ffffffffffffffffffffffffffffffffffffffff16815260200190815260200160002060008373ffffffffffffffffffffffffffffffffffffffff1673ffffffffffffffffffffffffffffffffffffffff16815260200190815260200160002060009054906101000a900460ff16905092915050565b6000611c668260026126b590919063ffffffff16565b9050919050565b600033905090565b816004600083815260200190815260200160002060006101000a81548173ffffffffffffffffffffffffffffffffffffffff021916908373ffffffffffffffffffffffffffffffffffffffff160217905550808273ffffffffffffffffffffffffffffffffffffffff16611ce8836112c1565b73ffffffffffffffffffffffffffffffffffffffff167f8c5be1e5ebec7d5bd14f71427d1e84f3dd0314c0f7b2291e5b200ac8c7c3b92560405160405180910390a45050565b6000611d3c826000016126cf565b9050919050565b6000611d4e82611c50565b611da3576040517f08c379a000000000000000000000000000000000000000000000000000000000815260040180806020018281038252602c8152602001806135fd602c913960400191505060405180910390fd5b6000611dae836112c1565b90508073ffffffffffffffffffffffffffffffffffffffff168473ffffffffffffffffffffffffffffffffffffffff161480611e1d57508373ffffffffffffffffffffffffffffffffffffffff16611e0584610d02565b73ffffffffffffffffffffffffffffffffffffffff16145b80611e2e5750611e2d8185611bbc565b5b91505092915050565b8273ffffffffffffffffffffffffffffffffffffffff16611e57826112c1565b73ffffffffffffffffffffffffffffffffffffffff1614611ec3576040517f08c379a00000000000000000000000000000000000000000000000000000000081526004018080602001828103825260298152602001806137026029913960400191505060405180910390fd5b600073ffffffffffffffffffffffffffffffffffffffff168273ffffffffffffffffffffffffffffffffffffffff161415611f49576040517f08c379a00000000000000000000000000000000000000000000000000000000081526004018080602001828103825260248152602001806135886024913960400191505060405180910390fd5b611f548383836126e0565b611f5f600082611c75565b611fb081600160008673ffffffffffffffffffffffffffffffffffffffff1673ffffffffffffffffffffffffffffffffffffffff1681526020019081526020016000206126e590919063ffffffff16565b5061200281600160008573ffffffffffffffffffffffffffffffffffffffff1673ffffffffffffffffffffffffffffffffffffffff1681526020019081526020016000206126ff90919063ffffffff16565b50612019818360026127199092919063ffffffff16565b50808273ffffffffffffffffffffffffffffffffffffffff168473ffffffffffffffffffffffffffffffffffffffff167fddf252ad1be2c89b69c2b068fc378daa952ba7f163c4a11628f55a4df523b3ef60405160405180910390a4505050565b6000612089836000018361274e565b60001c905092915050565b6000806000806120a786600001866127d1565b915091508160001c8160001c8090509350935050509250929050565b60007f000000000000000000000000000000000000000000000000000000000000000073ffffffffffffffffffffffffffffffffffffffff16634000aea07f000000000000000000000000000000000000000000000000000000000000000085878660405160200180838152602001828152602001925050506040516020818303038152906040526040518463ffffffff1660e01b8152600401808473ffffffffffffffffffffffffffffffffffffffff1673ffffffffffffffffffffffffffffffffffffffff16815260200183815260200180602001828103825283818151815260200191508051906020019080838360005b838110156121d25780820151818401526020810190506121b7565b50505050905090810190601f1680156121ff5780820380516001836020036101000a031916815260200191505b50945050505050602060405180830381600087803b15801561222057600080fd5b505af1158015612234573d6000803e3d6000fd5b505050506040513d602081101561224a57600080fd5b810190808051906020019092919050505050600061227d858430600a60008a81526020019081526020016000205461286a565b90506122a66001600a6000888152602001908152602001600020546128e490919063ffffffff16565b600a6000878152602001908152602001600020819055506122c7858261296c565b9150509392505050565b60006122e4846000018460001b846129a5565b60001c90509392505050565b60006122fe82600001612a9b565b9050919050565b6000601080549050905060006064838161231b57fe5b06905060006064612710858161232d57fe5b068161233557fe5b0490506000612710620f4240868161234957fe5b068161235157fe5b0490506000620f42406305f5e100878161236757fe5b068161236f57fe5b04905060106040518060a00160405280868152602001858152602001848152602001838152602001601160008b81526020019081526020016000208054600181600116156101000203166002900480601f01602080910402602001604051908101604052809291908181526020018280546001816001161561010002031660029004801561243e5780601f106124135761010080835404028352916020019161243e565b820191906000526020600020905b81548152906001019060200180831161242157829003601f168201915b505050505081525090806001815401808255809150506001900390600052602060002090600502016000909190919091506000820151816000015560208201518160010155604082015181600201556060820151816003015560808201518160040190805190602001906124b392919061348e565b5050506124f36012600089815260200190815260200160002060009054906101000a900473ffffffffffffffffffffffffffffffffffffffff1686612aac565b50505050505050565b612507848484611e37565b61251384848484612aca565b612568576040517f08c379a00000000000000000000000000000000000000000000000000000000081526004018080602001828103825260328152602001806135566032913960400191505060405180910390fd5b50505050565b606060008214156125b6576040518060400160405280600181526020017f300000000000000000000000000000000000000000000000000000000000000081525090506126b0565b600082905060005b600082146125e0578080600101915050600a82816125d857fe5b0491506125be565b60608167ffffffffffffffff811180156125f957600080fd5b506040519080825280601f01601f19166020018201604052801561262c5781602001600182028036833780820191505090505b50905060006001830390508593505b600084146126a857600a848161264d57fe5b0660300160f81b8282806001900393508151811061266757fe5b60200101907effffffffffffffffffffffffffffffffffffffffffffffffffffffffffffff1916908160001a905350600a84816126a057fe5b04935061263b565b819450505050505b919050565b60006126c7836000018360001b612d0f565b905092915050565b600081600001805490509050919050565b505050565b60006126f7836000018360001b612d32565b905092915050565b6000612711836000018360001b612e1a565b905092915050565b6000612745846000018460001b8473ffffffffffffffffffffffffffffffffffffffff1660001b612e8a565b90509392505050565b6000818360000180549050116127af576040517f08c379a00000000000000000000000000000000000000000000000000000000081526004018080602001828103825260228152602001806135346022913960400191505060405180910390fd5b8260000182815481106127be57fe5b9060005260206000200154905092915050565b60008082846000018054905011612833576040517f08c379a00000000000000000000000000000000000000000000000000000000081526004018080602001828103825260228152602001806136b46022913960400191505060405180910390fd5b600084600001848154811061284457fe5b906000526020600020906002020190508060000154816001015492509250509250929050565b600084848484604051602001808581526020018481526020018373ffffffffffffffffffffffffffffffffffffffff1673ffffffffffffffffffffffffffffffffffffffff1681526020018281526020019450505050506040516020818303038152906040528051906020012060001c9050949350505050565b600080828401905083811015612962576040517f08c379a000000000000000000000000000000000000000000000000000000000815260040180806020018281038252601b8152602001807f536166654d6174683a206164646974696f6e206f766572666c6f77000000000081525060200191505060405180910390fd5b8091505092915050565b60008282604051602001808381526020018281526020019250505060405160208183030381529060405280519060200120905092915050565b60008084600101600085815260200190815260200160002054905060008114158390612a6c576040517f08c379a00000000000000000000000000000000000000000000000000000000081526004018080602001828103825283818151815260200191508051906020019080838360005b83811015612a31578082015181840152602081019050612a16565b50505050905090810190601f168015612a5e5780820380516001836020036101000a031916815260200191505b509250505060405180910390fd5b50846000016001820381548110612a7f57fe5b9060005260206000209060020201600101549150509392505050565b600081600001805490509050919050565b612ac6828260405180602001604052806000815250612f66565b5050565b6000612aeb8473ffffffffffffffffffffffffffffffffffffffff16612fd7565b612af85760019050612d07565b6060612c8e63150b7a0260e01b612b0d611c6d565b888787604051602401808573ffffffffffffffffffffffffffffffffffffffff1673ffffffffffffffffffffffffffffffffffffffff1681526020018473ffffffffffffffffffffffffffffffffffffffff1673ffffffffffffffffffffffffffffffffffffffff16815260200183815260200180602001828103825283818151815260200191508051906020019080838360005b83811015612bbd578082015181840152602081019050612ba2565b50505050905090810190601f168015612bea5780820380516001836020036101000a031916815260200191505b5095505050505050604051602081830303815290604052907bffffffffffffffffffffffffffffffffffffffffffffffffffffffff19166020820180517bffffffffffffffffffffffffffffffffffffffffffffffffffffffff8381831617835250505050604051806060016040528060328152602001613556603291398773ffffffffffffffffffffffffffffffffffffffff16612fea9092919063ffffffff16565b90506000818060200190516020811015612ca757600080fd5b8101908080519060200190929190505050905063150b7a0260e01b7bffffffffffffffffffffffffffffffffffffffffffffffffffffffff1916817bffffffffffffffffffffffffffffffffffffffffffffffffffffffff191614925050505b949350505050565b600080836001016000848152602001908152602001600020541415905092915050565b60008083600101600084815260200190815260200160002054905060008114612e0e5760006001820390506000600186600001805490500390506000866000018281548110612d7d57fe5b9060005260206000200154905080876000018481548110612d9a57fe5b9060005260206000200181905550600183018760010160008381526020019081526020016000208190555086600001805480612dd257fe5b60019003818190600052602060002001600090559055866001016000878152602001908152602001600020600090556001945050505050612e14565b60009150505b92915050565b6000612e268383613002565b612e7f578260000182908060018154018082558091505060019003906000526020600020016000909190919091505582600001805490508360010160008481526020019081526020016000208190555060019050612e84565b600090505b92915050565b6000808460010160008581526020019081526020016000205490506000811415612f3157846000016040518060400160405280868152602001858152509080600181540180825580915050600190039060005260206000209060020201600090919091909150600082015181600001556020820151816001015550508460000180549050856001016000868152602001908152602001600020819055506001915050612f5f565b82856000016001830381548110612f4457fe5b90600052602060002090600202016001018190555060009150505b9392505050565b612f708383613025565b612f7d6000848484612aca565b612fd2576040517f08c379a00000000000000000000000000000000000000000000000000000000081526004018080602001828103825260328152602001806135566032913960400191505060405180910390fd5b505050565b600080823b905060008111915050919050565b6060612ff98484600085613219565b90509392505050565b600080836001016000848152602001908152602001600020541415905092915050565b600073ffffffffffffffffffffffffffffffffffffffff168273ffffffffffffffffffffffffffffffffffffffff1614156130c8576040517f08c379a00000000000000000000000000000000000000000000000000000000081526004018080602001828103825260208152602001807f4552433732313a206d696e7420746f20746865207a65726f206164647265737381525060200191505060405180910390fd5b6130d181611c50565b15613144576040517f08c379a000000000000000000000000000000000000000000000000000000000815260040180806020018281038252601c8152602001807f4552433732313a20746f6b656e20616c7265616479206d696e7465640000000081525060200191505060405180910390fd5b613150600083836126e0565b6131a181600160008573ffffffffffffffffffffffffffffffffffffffff1673ffffffffffffffffffffffffffffffffffffffff1681526020019081526020016000206126ff90919063ffffffff16565b506131b8818360026127199092919063ffffffff16565b50808273ffffffffffffffffffffffffffffffffffffffff16600073ffffffffffffffffffffffffffffffffffffffff167fddf252ad1be2c89b69c2b068fc378daa952ba7f163c4a11628f55a4df523b3ef60405160405180910390a45050565b606082471015613274576040517f08c379a00000000000000000000000000000000000000000000000000000000081526004018080602001828103825260268152602001806135d76026913960400191505060405180910390fd5b61327d85612fd7565b6132ef576040517f08c379a000000000000000000000000000000000000000000000000000000000815260040180806020018281038252601d8152602001807f416464726573733a2063616c6c20746f206e6f6e2d636f6e747261637400000081525060200191505060405180910390fd5b600060608673ffffffffffffffffffffffffffffffffffffffff1685876040518082805190602001908083835b6020831061333f578051825260208201915060208101905060208303925061331c565b6001836020036101000a03801982511681845116808217855250505050505090500191505060006040518083038185875af1925050503d80600081146133a1576040519150601f19603f3d011682016040523d82523d6000602084013e6133a6565b606091505b50915091506133b68282866133c2565b92505050949350505050565b606083156133d257829050613487565b6000835111156133e55782518084602001fd5b816040517f08c379a00000000000000000000000000000000000000000000000000000000081526004018080602001828103825283818151815260200191508051906020019080838360005b8381101561344c578082015181840152602081019050613431565b50505050905090810190601f1680156134795780820380516001836020036101000a031916815260200191505b509250505060405180910390fd5b9392505050565b828054600181600116156101000203166002900490600052602060002090601f016020900481019282601f106134cf57805160ff19168380011785556134fd565b828001600101855582156134fd579182015b828111156134fc5782518255916020019190600101906134e1565b5b50905061350a919061350e565b5090565b61353091905b8082111561352c576000816000905550600101613514565b5090565b9056fe456e756d657261626c655365743a20696e646578206f7574206f6620626f756e64734552433732313a207472616e7366657220746f206e6f6e20455243373231526563656976657220696d706c656d656e7465724552433732313a207472616e7366657220746f20746865207a65726f20616464726573734e6f7420656e6f756768204c494e4b202d2066696c6c20636f6e7472616374207769746820666175636574416464726573733a20696e73756666696369656e742062616c616e636520666f722063616c6c4552433732313a206f70657261746f7220717565727920666f72206e6f6e6578697374656e7420746f6b656e4552433732313a20617070726f76652063616c6c6572206973206e6f74206f776e6572206e6f7220617070726f76656420666f7220616c6c4552433732313a2062616c616e636520717565727920666f7220746865207a65726f20616464726573734552433732313a206f776e657220717565727920666f72206e6f6e6578697374656e7420746f6b656e456e756d657261626c654d61703a20696e646578206f7574206f6620626f756e64734552433732313a20617070726f76656420717565727920666f72206e6f6e6578697374656e7420746f6b656e4552433732313a207472616e73666572206f6620746f6b656e2074686174206973206e6f74206f776e4552433732314d657461646174613a2055524920717565727920666f72206e6f6e6578697374656e7420746f6b656e4552433732313a20617070726f76616c20746f2063757272656e74206f776e65724552433732313a207472616e736665722063616c6c6572206973206e6f74206f776e6572206e6f7220617070726f766564a2646970667358221220831397d1e1b6363915f80b2c36fa602f2d88a2cb20852eb2a463a25ac768c26164736f6c63430006060033",
  "immutableReferences": {
    "325": [
      {
        "length": 32,
        "start": 4349
      },
      {
        "length": 32,
        "start": 8391
      }
    ],
    "327": [
      {
        "length": 32,
        "start": 5233
      },
      {
        "length": 32,
        "start": 8451
      }
    ]
  },
  "source": "// SPDX-License-Identifier: MIT\npragma solidity >=0.6.0 <0.8.0;\n\nimport \"@openzeppelin/contracts/token/ERC721/ERC721.sol\";\nimport \"@chainlink/contracts/src/v0.6/VRFConsumerBase.sol\";\nimport \"@openzeppelin/contracts/access/Ownable.sol\";\nimport \"@openzeppelin/contracts/utils/Strings.sol\";\n\ncontract NFTrip is ERC721, VRFConsumerBase {\n    using SafeMath for uint256;\n    using Strings for string;\n\n    bytes32 internal keyHash;\n    uint256 internal fee;\n    uint256 public randomResult;\n    address public VRFCoordinator;\n    address public LinkToken;\n\n    struct Place{\n        uint256 adventure;\n        uint256 attractions;\n        uint256 services;\n        uint256 experience;\n        string name;\n    }\n    Place[] public places;\n\n    mapping(bytes32 => string) requestToPlaceName;\n    mapping(bytes32 => address) requestToSender;\n    mapping(bytes32 => uint256) requestToTokenId;\n    \n    constructor(address _VRFCoordinator, address _LinkToken, bytes32 _keyhash) public\n    VRFConsumerBase(_VRFCoordinator, _LinkToken)\n    ERC721('MyTrip', 'MYT')  {\n        VRFCoordinator = _VRFCoordinator;\n        LinkToken = _LinkToken;\n        keyHash = _keyhash;\n        fee = 0.1 * 10**18; // 0.1 LINK\n    }\n\n    function requestNewRandomPlace(uint256 userProvidedSeed, string memory place) public returns (bytes32) {\n        require(\n            LINK.balanceOf(address(this)) >= fee,\n            \"Not enough LINK - fill contract with faucet\"\n        ); \n        bytes32 requestId = requestRandomness(keyHash, fee, userProvidedSeed);\n        requestToPlaceName[requestId] = place;\n        requestToSender[requestId] = msg.sender;    //Sender of this function will be the owner of the NFT;\n        return requestId;\n    }\n\n    function fulfillRandomness(bytes32 requestId, uint256 randomNumber)\n        internal\n        override\n    {\n        uint256 newId = places.length;\n        uint256 adventure = (randomNumber % 100);\n        uint256 attractions = ((randomNumber % 10000) / 100 );\n        uint256 services = ((randomNumber % 1000000) / 10000 );\n        uint256 experience = ((randomNumber % 100000000) / 1000000 );\n\n        places.push(\n            Place(\n                adventure,\n                attractions,\n                services,\n                experience,\n                requestToPlaceName[requestId]\n            )\n        );\n        _safeMint(requestToSender[requestId], newId);\n    }\n\n    function getNumberOfPlaces() public view returns (uint256) {\n        return places.length; \n    }\n\n    function getPlaceStats(uint256 tokenId)\n        public\n        view\n        returns (\n            uint256,\n            uint256,\n            uint256,\n            uint256\n        )\n    {\n        return (\n            places[tokenId].adventure,\n            places[tokenId].attractions,\n            places[tokenId].services,\n            places[tokenId].experience\n        );\n    }\n}",
  "sourcePath": "/Users/SK-Dev/SK/Github/NFTrips/contracts/NFTrip.sol",
  "compiler": {
    "name": "solc",
    "version": "0.6.6+commit.6c089d02.Emscripten.clang"
  },
  "schemaVersion": "3.3.4",
  "updatedAt": "2021-04-11T14:58:34.508Z",
  "networkType": "ethereum",
  "devdoc": {
    "methods": {
      "approve(address,uint256)": {
        "details": "See {IERC721-approve}."
      },
      "balanceOf(address)": {
        "details": "See {IERC721-balanceOf}."
      },
      "baseURI()": {
        "details": "Returns the base URI set via {_setBaseURI}. This will be automatically added as a prefix in {tokenURI} to each token's URI, or to the token ID if no specific URI is set for that token ID."
      },
      "getApproved(uint256)": {
        "details": "See {IERC721-getApproved}."
      },
      "isApprovedForAll(address,address)": {
        "details": "See {IERC721-isApprovedForAll}."
      },
      "name()": {
        "details": "See {IERC721Metadata-name}."
      },
      "ownerOf(uint256)": {
        "details": "See {IERC721-ownerOf}."
      },
      "safeTransferFrom(address,address,uint256)": {
        "details": "See {IERC721-safeTransferFrom}."
      },
      "safeTransferFrom(address,address,uint256,bytes)": {
        "details": "See {IERC721-safeTransferFrom}."
      },
      "setApprovalForAll(address,bool)": {
        "details": "See {IERC721-setApprovalForAll}."
      },
      "supportsInterface(bytes4)": {
        "details": "See {IERC165-supportsInterface}.     * Time complexity O(1), guaranteed to always use less than 30 000 gas."
      },
      "symbol()": {
        "details": "See {IERC721Metadata-symbol}."
      },
      "tokenByIndex(uint256)": {
        "details": "See {IERC721Enumerable-tokenByIndex}."
      },
      "tokenOfOwnerByIndex(address,uint256)": {
        "details": "See {IERC721Enumerable-tokenOfOwnerByIndex}."
      },
      "tokenURI(uint256)": {
        "details": "See {IERC721Metadata-tokenURI}."
      },
      "totalSupply()": {
        "details": "See {IERC721Enumerable-totalSupply}."
      },
      "transferFrom(address,address,uint256)": {
        "details": "See {IERC721-transferFrom}."
      }
    }
  },
  "userdoc": {
    "methods": {}
  }
}